{
  "contractName": "StarNotary",
  "abi": [
    {
      "inputs": [],
      "stateMutability": "nonpayable",
      "type": "constructor"
    },
    {
      "anonymous": false,
      "inputs": [
        {
          "indexed": true,
          "internalType": "address",
          "name": "owner",
          "type": "address"
        },
        {
          "indexed": true,
          "internalType": "address",
          "name": "approved",
          "type": "address"
        },
        {
          "indexed": true,
          "internalType": "uint256",
          "name": "tokenId",
          "type": "uint256"
        }
      ],
      "name": "Approval",
      "type": "event"
    },
    {
      "anonymous": false,
      "inputs": [
        {
          "indexed": true,
          "internalType": "address",
          "name": "owner",
          "type": "address"
        },
        {
          "indexed": true,
          "internalType": "address",
          "name": "operator",
          "type": "address"
        },
        {
          "indexed": false,
          "internalType": "bool",
          "name": "approved",
          "type": "bool"
        }
      ],
      "name": "ApprovalForAll",
      "type": "event"
    },
    {
      "anonymous": false,
      "inputs": [
        {
          "indexed": true,
          "internalType": "address",
          "name": "from",
          "type": "address"
        },
        {
          "indexed": true,
          "internalType": "address",
          "name": "to",
          "type": "address"
        },
        {
          "indexed": true,
          "internalType": "uint256",
          "name": "tokenId",
          "type": "uint256"
        }
      ],
      "name": "Transfer",
      "type": "event"
    },
    {
      "inputs": [
        {
          "internalType": "address",
          "name": "to",
          "type": "address"
        },
        {
          "internalType": "uint256",
          "name": "tokenId",
          "type": "uint256"
        }
      ],
      "name": "approve",
      "outputs": [],
      "stateMutability": "nonpayable",
      "type": "function"
    },
    {
      "inputs": [
        {
          "internalType": "address",
          "name": "owner",
          "type": "address"
        }
      ],
      "name": "balanceOf",
      "outputs": [
        {
          "internalType": "uint256",
          "name": "",
          "type": "uint256"
        }
      ],
      "stateMutability": "view",
      "type": "function"
    },
    {
      "inputs": [
        {
          "internalType": "uint256",
          "name": "tokenId",
          "type": "uint256"
        }
      ],
      "name": "getApproved",
      "outputs": [
        {
          "internalType": "address",
          "name": "",
          "type": "address"
        }
      ],
      "stateMutability": "view",
      "type": "function"
    },
    {
      "inputs": [
        {
          "internalType": "address",
          "name": "owner",
          "type": "address"
        },
        {
          "internalType": "address",
          "name": "operator",
          "type": "address"
        }
      ],
      "name": "isApprovedForAll",
      "outputs": [
        {
          "internalType": "bool",
          "name": "",
          "type": "bool"
        }
      ],
      "stateMutability": "view",
      "type": "function"
    },
    {
      "inputs": [],
      "name": "name",
      "outputs": [
        {
          "internalType": "string",
          "name": "",
          "type": "string"
        }
      ],
      "stateMutability": "view",
      "type": "function"
    },
    {
      "inputs": [
        {
          "internalType": "uint256",
          "name": "tokenId",
          "type": "uint256"
        }
      ],
      "name": "ownerOf",
      "outputs": [
        {
          "internalType": "address",
          "name": "",
          "type": "address"
        }
      ],
      "stateMutability": "view",
      "type": "function"
    },
    {
      "inputs": [
        {
          "internalType": "address",
          "name": "from",
          "type": "address"
        },
        {
          "internalType": "address",
          "name": "to",
          "type": "address"
        },
        {
          "internalType": "uint256",
          "name": "tokenId",
          "type": "uint256"
        }
      ],
      "name": "safeTransferFrom",
      "outputs": [],
      "stateMutability": "nonpayable",
      "type": "function"
    },
    {
      "inputs": [
        {
          "internalType": "address",
          "name": "from",
          "type": "address"
        },
        {
          "internalType": "address",
          "name": "to",
          "type": "address"
        },
        {
          "internalType": "uint256",
          "name": "tokenId",
          "type": "uint256"
        },
        {
          "internalType": "bytes",
          "name": "data",
          "type": "bytes"
        }
      ],
      "name": "safeTransferFrom",
      "outputs": [],
      "stateMutability": "nonpayable",
      "type": "function"
    },
    {
      "inputs": [
        {
          "internalType": "address",
          "name": "operator",
          "type": "address"
        },
        {
          "internalType": "bool",
          "name": "approved",
          "type": "bool"
        }
      ],
      "name": "setApprovalForAll",
      "outputs": [],
      "stateMutability": "nonpayable",
      "type": "function"
    },
    {
      "inputs": [
        {
          "internalType": "uint256",
          "name": "",
          "type": "uint256"
        }
      ],
      "name": "starsForSale",
      "outputs": [
        {
          "internalType": "uint256",
          "name": "",
          "type": "uint256"
        }
      ],
      "stateMutability": "view",
      "type": "function"
    },
    {
      "inputs": [
        {
          "internalType": "bytes4",
          "name": "interfaceId",
          "type": "bytes4"
        }
      ],
      "name": "supportsInterface",
      "outputs": [
        {
          "internalType": "bool",
          "name": "",
          "type": "bool"
        }
      ],
      "stateMutability": "view",
      "type": "function"
    },
    {
      "inputs": [],
      "name": "symbol",
      "outputs": [
        {
          "internalType": "string",
          "name": "",
          "type": "string"
        }
      ],
      "stateMutability": "view",
      "type": "function"
    },
    {
      "inputs": [
        {
          "internalType": "uint256",
          "name": "",
          "type": "uint256"
        }
      ],
      "name": "tokenIdToStarInfo",
      "outputs": [
        {
          "internalType": "string",
          "name": "name",
          "type": "string"
        }
      ],
      "stateMutability": "view",
      "type": "function"
    },
    {
      "inputs": [
        {
          "internalType": "uint256",
          "name": "tokenId",
          "type": "uint256"
        }
      ],
      "name": "tokenURI",
      "outputs": [
        {
          "internalType": "string",
          "name": "",
          "type": "string"
        }
      ],
      "stateMutability": "view",
      "type": "function"
    },
    {
      "inputs": [
        {
          "internalType": "address",
          "name": "from",
          "type": "address"
        },
        {
          "internalType": "address",
          "name": "to",
          "type": "address"
        },
        {
          "internalType": "uint256",
          "name": "tokenId",
          "type": "uint256"
        }
      ],
      "name": "transferFrom",
      "outputs": [],
      "stateMutability": "nonpayable",
      "type": "function"
    },
    {
      "inputs": [
        {
          "internalType": "string",
          "name": "_name",
          "type": "string"
        },
        {
          "internalType": "uint256",
          "name": "_tokenId",
          "type": "uint256"
        }
      ],
      "name": "createStar",
      "outputs": [],
      "stateMutability": "nonpayable",
      "type": "function"
    },
    {
      "inputs": [
        {
          "internalType": "uint256",
          "name": "_tokenId",
          "type": "uint256"
        },
        {
          "internalType": "uint256",
          "name": "_price",
          "type": "uint256"
        }
      ],
      "name": "putStarUpForSale",
      "outputs": [],
      "stateMutability": "nonpayable",
      "type": "function"
    },
    {
      "inputs": [
        {
          "internalType": "uint256",
          "name": "_tokenId",
          "type": "uint256"
        }
      ],
      "name": "buyStar",
      "outputs": [],
      "stateMutability": "payable",
      "type": "function"
    },
    {
      "inputs": [
        {
          "internalType": "uint256",
          "name": "_tokenId",
          "type": "uint256"
        }
      ],
      "name": "lookUptokenIdToStarInfo",
      "outputs": [
        {
          "internalType": "string",
          "name": "",
          "type": "string"
        }
      ],
      "stateMutability": "view",
      "type": "function"
    },
    {
      "inputs": [
        {
          "internalType": "uint256",
          "name": "_tokenId1",
          "type": "uint256"
        },
        {
          "internalType": "uint256",
          "name": "_tokenId2",
          "type": "uint256"
        }
      ],
      "name": "exchangeStars",
      "outputs": [],
      "stateMutability": "nonpayable",
      "type": "function"
    },
    {
      "inputs": [
        {
          "internalType": "address",
          "name": "_to1",
          "type": "address"
        },
        {
          "internalType": "uint256",
          "name": "_tokenId",
          "type": "uint256"
        }
      ],
      "name": "transferStar",
      "outputs": [],
      "stateMutability": "nonpayable",
      "type": "function"
    },
    {
      "inputs": [],
      "name": "listStarsforDebug",
      "outputs": [
        {
          "components": [
            {
              "internalType": "string",
              "name": "name",
              "type": "string"
            }
          ],
          "internalType": "struct StarNotary.Star[]",
          "name": "",
          "type": "tuple[]"
        }
      ],
      "stateMutability": "view",
      "type": "function"
    }
  ],
  "bytecode": "0x60806040523480156200001157600080fd5b506040518060400160405280601181526020017f53746172204e6f7461727920546f6b656e0000000000000000000000000000008152506040518060400160405280600381526020017f534e540000000000000000000000000000000000000000000000000000000000815250816000908051906020019062000096929190620000b8565b508060019080519060200190620000af929190620000b8565b505050620001cd565b828054620000c69062000197565b90600052602060002090601f016020900481019282620000ea576000855562000136565b82601f106200010557805160ff191683800117855562000136565b8280016001018555821562000136579182015b828111156200013557825182559160200191906001019062000118565b5b50905062000145919062000149565b5090565b5b80821115620001645760008160009055506001016200014a565b5090565b7f4e487b7100000000000000000000000000000000000000000000000000000000600052602260045260246000fd5b60006002820490506001821680620001b057607f821691505b60208210811415620001c757620001c662000168565b5b50919050565b61360980620001dd6000396000f3fe6080604052600436106101355760003560e01c80636352211e116100ab578063a22cb4651161006f578063a22cb4651461043b578063b88d4fde14610464578063c87b56dd1461048d578063d7830ccb146104ca578063e7152a5c14610507578063e985e9c51461053057610135565b80636352211e1461034257806370a082311461037f5780637acd50fc146103bc57806395d89b41146103e75780639697c0a11461041257610135565b806315e0afa5116100fd57806315e0afa5146102455780631967fd981461026e57806323b872dd146102ab5780632f1c34ef146102d4578063316a4361146102f057806342842e0e1461031957610135565b806301ffc9a71461013a5780630564b1301461017757806306fdde03146101b4578063081812fc146101df578063095ea7b31461021c575b600080fd5b34801561014657600080fd5b50610161600480360381019061015c91906121b9565b61056d565b60405161016e9190612201565b60405180910390f35b34801561018357600080fd5b5061019e60048036038101906101999190612252565b61064f565b6040516101ab919061228e565b60405180910390f35b3480156101c057600080fd5b506101c9610667565b6040516101d69190612342565b60405180910390f35b3480156101eb57600080fd5b5061020660048036038101906102019190612252565b6106f9565b60405161021391906123a5565b60405180910390f35b34801561022857600080fd5b50610243600480360381019061023e91906123ec565b61073f565b005b34801561025157600080fd5b5061026c6004803603810190610267919061242c565b610857565b005b34801561027a57600080fd5b5061029560048036038101906102909190612252565b610945565b6040516102a29190612342565b60405180910390f35b3480156102b757600080fd5b506102d260048036038101906102cd919061246c565b6109eb565b005b6102ee60048036038101906102e99190612252565b610a4b565b005b3480156102fc57600080fd5b506103176004803603810190610312919061242c565b610b4e565b005b34801561032557600080fd5b50610340600480360381019061033b919061246c565b610be0565b005b34801561034e57600080fd5b5061036960048036038101906103649190612252565b610c00565b60405161037691906123a5565b60405180910390f35b34801561038b57600080fd5b506103a660048036038101906103a191906124bf565b610c87565b6040516103b3919061228e565b60405180910390f35b3480156103c857600080fd5b506103d1610d3f565b6040516103de9190612622565b60405180910390f35b3480156103f357600080fd5b506103fc610ead565b6040516104099190612342565b60405180910390f35b34801561041e57600080fd5b5061043960048036038101906104349190612779565b610f3f565b005b34801561044757600080fd5b50610462600480360381019061045d9190612801565b610f95565b005b34801561047057600080fd5b5061048b600480360381019061048691906128e2565b610fab565b005b34801561049957600080fd5b506104b460048036038101906104af9190612252565b61100d565b6040516104c19190612342565b60405180910390f35b3480156104d657600080fd5b506104f160048036038101906104ec9190612252565b611075565b6040516104fe9190612342565b60405180910390f35b34801561051357600080fd5b5061052e600480360381019061052991906123ec565b61111d565b005b34801561053c57600080fd5b5061055760048036038101906105529190612965565b6111a2565b6040516105649190612201565b60405180910390f35b60007f80ac58cd000000000000000000000000000000000000000000000000000000007bffffffffffffffffffffffffffffffffffffffffffffffffffffffff1916827bffffffffffffffffffffffffffffffffffffffffffffffffffffffff1916148061063857507f5b5e139f000000000000000000000000000000000000000000000000000000007bffffffffffffffffffffffffffffffffffffffffffffffffffffffff1916827bffffffffffffffffffffffffffffffffffffffffffffffffffffffff1916145b80610648575061064782611236565b5b9050919050565b60076020528060005260406000206000915090505481565b606060008054610676906129d4565b80601f01602080910402602001604051908101604052809291908181526020018280546106a2906129d4565b80156106ef5780601f106106c4576101008083540402835291602001916106ef565b820191906000526020600020905b8154815290600101906020018083116106d257829003601f168201915b5050505050905090565b6000610704826112a0565b6004600083815260200190815260200160002060009054906101000a900473ffffffffffffffffffffffffffffffffffffffff169050919050565b600061074a82610c00565b90508073ffffffffffffffffffffffffffffffffffffffff168373ffffffffffffffffffffffffffffffffffffffff1614156107bb576040517f08c379a00000000000000000000000000000000000000000000000000000000081526004016107b290612a78565b60405180910390fd5b8073ffffffffffffffffffffffffffffffffffffffff166107da6112eb565b73ffffffffffffffffffffffffffffffffffffffff1614806108095750610808816108036112eb565b6111a2565b5b610848576040517f08c379a000000000000000000000000000000000000000000000000000000000815260040161083f90612b0a565b60405180910390fd5b61085283836112f3565b505050565b61086082610c00565b73ffffffffffffffffffffffffffffffffffffffff163373ffffffffffffffffffffffffffffffffffffffff16141580156108cf575061089f81610c00565b73ffffffffffffffffffffffffffffffffffffffff163373ffffffffffffffffffffffffffffffffffffffff1614155b1561090f576040517f08c379a000000000000000000000000000000000000000000000000000000000815260040161090690612b9c565b60405180910390fd5b600061091a83610c00565b9050600061092783610c00565b90506109348282866113ac565b61093f8183856113ac565b50505050565b6006602052806000526040600020600091509050806000018054610968906129d4565b80601f0160208091040260200160405190810160405280929190818152602001828054610994906129d4565b80156109e15780601f106109b6576101008083540402835291602001916109e1565b820191906000526020600020905b8154815290600101906020018083116109c457829003601f168201915b5050505050905081565b6109fc6109f66112eb565b826116a6565b610a3b576040517f08c379a0000000000000000000000000000000000000000000000000000000008152600401610a3290612c2e565b60405180910390fd5b610a468383836113ac565b505050565b6000600760008381526020019081526020016000205411610aa1576040517f08c379a0000000000000000000000000000000000000000000000000000000008152600401610a9890612c9a565b60405180910390fd5b6000600760008381526020019081526020016000205490506000610ac483610c00565b9050813411610b08576040517f08c379a0000000000000000000000000000000000000000000000000000000008152600401610aff90612d06565b60405180910390fd5b610b138133856109eb565b6000610b1e8261173b565b9050610b2a8184611745565b82341115610b4857610b47338434610b429190612d55565b611745565b5b50505050565b3373ffffffffffffffffffffffffffffffffffffffff16610b6e83610c00565b73ffffffffffffffffffffffffffffffffffffffff1614610bc4576040517f08c379a0000000000000000000000000000000000000000000000000000000008152600401610bbb90612dfb565b60405180910390fd5b8060076000848152602001908152602001600020819055505050565b610bfb83838360405180602001604052806000815250610fab565b505050565b600080610c0c83611839565b9050600073ffffffffffffffffffffffffffffffffffffffff168173ffffffffffffffffffffffffffffffffffffffff161415610c7e576040517f08c379a0000000000000000000000000000000000000000000000000000000008152600401610c7590612e67565b60405180910390fd5b80915050919050565b60008073ffffffffffffffffffffffffffffffffffffffff168273ffffffffffffffffffffffffffffffffffffffff161415610cf8576040517f08c379a0000000000000000000000000000000000000000000000000000000008152600401610cef90612ef9565b60405180910390fd5b600360008373ffffffffffffffffffffffffffffffffffffffff1673ffffffffffffffffffffffffffffffffffffffff168152602001908152602001600020549050919050565b60606000603267ffffffffffffffff811115610d5e57610d5d61264e565b5b604051908082528060200260200182016040528015610d9757816020015b610d84612097565b815260200190600190039081610d7c5790505b5090506000600190505b60328111610ea557610db281611876565b15610e925760066000828152602001908152602001600020604051806020016040529081600082018054610de5906129d4565b80601f0160208091040260200160405190810160405280929190818152602001828054610e11906129d4565b8015610e5e5780601f10610e3357610100808354040283529160200191610e5e565b820191906000526020600020905b815481529060010190602001808311610e4157829003601f168201915b50505050508152505082600183610e759190612d55565b81518110610e8657610e85612f19565b5b60200260200101819052505b8080610e9d90612f48565b915050610da1565b508091505090565b606060018054610ebc906129d4565b80601f0160208091040260200160405190810160405280929190818152602001828054610ee8906129d4565b8015610f355780601f10610f0a57610100808354040283529160200191610f35565b820191906000526020600020905b815481529060010190602001808311610f1857829003601f168201915b5050505050905090565b6000604051806020016040528084815250905080600660008481526020019081526020016000206000820151816000019080519060200190610f829291906120aa565b50905050610f9033836118b7565b505050565b610fa7610fa06112eb565b8383611ad5565b5050565b610fbc610fb66112eb565b836116a6565b610ffb576040517f08c379a0000000000000000000000000000000000000000000000000000000008152600401610ff290612c2e565b60405180910390fd5b61100784848484611c42565b50505050565b6060611018826112a0565b6000611022611c9e565b90506000815111611042576040518060200160405280600081525061106d565b8061104c84611cb5565b60405160200161105d929190612fcd565b6040516020818303038152906040525b915050919050565b6060600660008381526020019081526020016000206000018054611098906129d4565b80601f01602080910402602001604051908101604052809291908181526020018280546110c4906129d4565b80156111115780601f106110e657610100808354040283529160200191611111565b820191906000526020600020905b8154815290600101906020018083116110f457829003601f168201915b50505050509050919050565b61112681610c00565b73ffffffffffffffffffffffffffffffffffffffff163373ffffffffffffffffffffffffffffffffffffffff1614611193576040517f08c379a000000000000000000000000000000000000000000000000000000000815260040161118a90613063565b60405180910390fd5b61119e3383836109eb565b5050565b6000600560008473ffffffffffffffffffffffffffffffffffffffff1673ffffffffffffffffffffffffffffffffffffffff16815260200190815260200160002060008373ffffffffffffffffffffffffffffffffffffffff1673ffffffffffffffffffffffffffffffffffffffff16815260200190815260200160002060009054906101000a900460ff16905092915050565b60007f01ffc9a7000000000000000000000000000000000000000000000000000000007bffffffffffffffffffffffffffffffffffffffffffffffffffffffff1916827bffffffffffffffffffffffffffffffffffffffffffffffffffffffff1916149050919050565b6112a981611876565b6112e8576040517f08c379a00000000000000000000000000000000000000000000000000000000081526004016112df90612e67565b60405180910390fd5b50565b600033905090565b816004600083815260200190815260200160002060006101000a81548173ffffffffffffffffffffffffffffffffffffffff021916908373ffffffffffffffffffffffffffffffffffffffff160217905550808273ffffffffffffffffffffffffffffffffffffffff1661136683610c00565b73ffffffffffffffffffffffffffffffffffffffff167f8c5be1e5ebec7d5bd14f71427d1e84f3dd0314c0f7b2291e5b200ac8c7c3b92560405160405180910390a45050565b8273ffffffffffffffffffffffffffffffffffffffff166113cc82610c00565b73ffffffffffffffffffffffffffffffffffffffff1614611422576040517f08c379a0000000000000000000000000000000000000000000000000000000008152600401611419906130f5565b60405180910390fd5b600073ffffffffffffffffffffffffffffffffffffffff168273ffffffffffffffffffffffffffffffffffffffff161415611492576040517f08c379a000000000000000000000000000000000000000000000000000000000815260040161148990613187565b60405180910390fd5b61149f8383836001611d8d565b8273ffffffffffffffffffffffffffffffffffffffff166114bf82610c00565b73ffffffffffffffffffffffffffffffffffffffff1614611515576040517f08c379a000000000000000000000000000000000000000000000000000000000815260040161150c906130f5565b60405180910390fd5b6004600082815260200190815260200160002060006101000a81549073ffffffffffffffffffffffffffffffffffffffff02191690556001600360008573ffffffffffffffffffffffffffffffffffffffff1673ffffffffffffffffffffffffffffffffffffffff168152602001908152602001600020600082825403925050819055506001600360008473ffffffffffffffffffffffffffffffffffffffff1673ffffffffffffffffffffffffffffffffffffffff16815260200190815260200160002060008282540192505081905550816002600083815260200190815260200160002060006101000a81548173ffffffffffffffffffffffffffffffffffffffff021916908373ffffffffffffffffffffffffffffffffffffffff160217905550808273ffffffffffffffffffffffffffffffffffffffff168473ffffffffffffffffffffffffffffffffffffffff167fddf252ad1be2c89b69c2b068fc378daa952ba7f163c4a11628f55a4df523b3ef60405160405180910390a46116a18383836001611d93565b505050565b6000806116b283610c00565b90508073ffffffffffffffffffffffffffffffffffffffff168473ffffffffffffffffffffffffffffffffffffffff1614806116f457506116f381856111a2565b5b8061173257508373ffffffffffffffffffffffffffffffffffffffff1661171a846106f9565b73ffffffffffffffffffffffffffffffffffffffff16145b91505092915050565b6000819050919050565b80471015611788576040517f08c379a000000000000000000000000000000000000000000000000000000000815260040161177f906131f3565b60405180910390fd5b60008273ffffffffffffffffffffffffffffffffffffffff16826040516117ae90613244565b60006040518083038185875af1925050503d80600081146117eb576040519150601f19603f3d011682016040523d82523d6000602084013e6117f0565b606091505b5050905080611834576040517f08c379a000000000000000000000000000000000000000000000000000000000815260040161182b906132cb565b60405180910390fd5b505050565b60006002600083815260200190815260200160002060009054906101000a900473ffffffffffffffffffffffffffffffffffffffff169050919050565b60008073ffffffffffffffffffffffffffffffffffffffff1661189883611839565b73ffffffffffffffffffffffffffffffffffffffff1614159050919050565b600073ffffffffffffffffffffffffffffffffffffffff168273ffffffffffffffffffffffffffffffffffffffff161415611927576040517f08c379a000000000000000000000000000000000000000000000000000000000815260040161191e90613337565b60405180910390fd5b61193081611876565b15611970576040517f08c379a0000000000000000000000000000000000000000000000000000000008152600401611967906133a3565b60405180910390fd5b61197e600083836001611d8d565b61198781611876565b156119c7576040517f08c379a00000000000000000000000000000000000000000000000000000000081526004016119be906133a3565b60405180910390fd5b6001600360008473ffffffffffffffffffffffffffffffffffffffff1673ffffffffffffffffffffffffffffffffffffffff16815260200190815260200160002060008282540192505081905550816002600083815260200190815260200160002060006101000a81548173ffffffffffffffffffffffffffffffffffffffff021916908373ffffffffffffffffffffffffffffffffffffffff160217905550808273ffffffffffffffffffffffffffffffffffffffff16600073ffffffffffffffffffffffffffffffffffffffff167fddf252ad1be2c89b69c2b068fc378daa952ba7f163c4a11628f55a4df523b3ef60405160405180910390a4611ad1600083836001611d93565b5050565b8173ffffffffffffffffffffffffffffffffffffffff168373ffffffffffffffffffffffffffffffffffffffff161415611b44576040517f08c379a0000000000000000000000000000000000000000000000000000000008152600401611b3b9061340f565b60405180910390fd5b80600560008573ffffffffffffffffffffffffffffffffffffffff1673ffffffffffffffffffffffffffffffffffffffff16815260200190815260200160002060008473ffffffffffffffffffffffffffffffffffffffff1673ffffffffffffffffffffffffffffffffffffffff16815260200190815260200160002060006101000a81548160ff0219169083151502179055508173ffffffffffffffffffffffffffffffffffffffff168373ffffffffffffffffffffffffffffffffffffffff167f17307eab39ab6107e8899845ad3d59bd9653f200f220920489ca2b5937696c3183604051611c359190612201565b60405180910390a3505050565b611c4d8484846113ac565b611c5984848484611d99565b611c98576040517f08c379a0000000000000000000000000000000000000000000000000000000008152600401611c8f906134a1565b60405180910390fd5b50505050565b606060405180602001604052806000815250905090565b606060006001611cc484611f21565b01905060008167ffffffffffffffff811115611ce357611ce261264e565b5b6040519080825280601f01601f191660200182016040528015611d155781602001600182028036833780820191505090505b509050600082602001820190505b600115611d82578080600190039150507f3031323334353637383961626364656600000000000000000000000000000000600a86061a8153600a8581611d6c57611d6b6134c1565b5b0494506000851415611d7d57611d82565b611d23565b819350505050919050565b50505050565b50505050565b6000611dba8473ffffffffffffffffffffffffffffffffffffffff16612074565b15611f14578373ffffffffffffffffffffffffffffffffffffffff1663150b7a02611de36112eb565b8786866040518563ffffffff1660e01b8152600401611e059493929190613545565b6020604051808303816000875af1925050508015611e4157506040513d601f19601f82011682018060405250810190611e3e91906135a6565b60015b611ec4573d8060008114611e71576040519150601f19603f3d011682016040523d82523d6000602084013e611e76565b606091505b50600081511415611ebc576040517f08c379a0000000000000000000000000000000000000000000000000000000008152600401611eb3906134a1565b60405180910390fd5b805181602001fd5b63150b7a0260e01b7bffffffffffffffffffffffffffffffffffffffffffffffffffffffff1916817bffffffffffffffffffffffffffffffffffffffffffffffffffffffff191614915050611f19565b600190505b949350505050565b600080600090507a184f03e93ff9f4daa797ed6e38ed64bf6a1f0100000000000000008310611f7f577a184f03e93ff9f4daa797ed6e38ed64bf6a1f0100000000000000008381611f7557611f746134c1565b5b0492506040810190505b6d04ee2d6d415b85acef81000000008310611fbc576d04ee2d6d415b85acef81000000008381611fb257611fb16134c1565b5b0492506020810190505b662386f26fc100008310611feb57662386f26fc100008381611fe157611fe06134c1565b5b0492506010810190505b6305f5e1008310612014576305f5e100838161200a576120096134c1565b5b0492506008810190505b612710831061203957612710838161202f5761202e6134c1565b5b0492506004810190505b6064831061205c5760648381612052576120516134c1565b5b0492506002810190505b600a831061206b576001810190505b80915050919050565b6000808273ffffffffffffffffffffffffffffffffffffffff163b119050919050565b6040518060200160405280606081525090565b8280546120b6906129d4565b90600052602060002090601f0160209004810192826120d8576000855561211f565b82601f106120f157805160ff191683800117855561211f565b8280016001018555821561211f579182015b8281111561211e578251825591602001919060010190612103565b5b50905061212c9190612130565b5090565b5b80821115612149576000816000905550600101612131565b5090565b6000604051905090565b600080fd5b600080fd5b60007fffffffff0000000000000000000000000000000000000000000000000000000082169050919050565b61219681612161565b81146121a157600080fd5b50565b6000813590506121b38161218d565b92915050565b6000602082840312156121cf576121ce612157565b5b60006121dd848285016121a4565b91505092915050565b60008115159050919050565b6121fb816121e6565b82525050565b600060208201905061221660008301846121f2565b92915050565b6000819050919050565b61222f8161221c565b811461223a57600080fd5b50565b60008135905061224c81612226565b92915050565b60006020828403121561226857612267612157565b5b60006122768482850161223d565b91505092915050565b6122888161221c565b82525050565b60006020820190506122a3600083018461227f565b92915050565b600081519050919050565b600082825260208201905092915050565b60005b838110156122e35780820151818401526020810190506122c8565b838111156122f2576000848401525b50505050565b6000601f19601f8301169050919050565b6000612314826122a9565b61231e81856122b4565b935061232e8185602086016122c5565b612337816122f8565b840191505092915050565b6000602082019050818103600083015261235c8184612309565b905092915050565b600073ffffffffffffffffffffffffffffffffffffffff82169050919050565b600061238f82612364565b9050919050565b61239f81612384565b82525050565b60006020820190506123ba6000830184612396565b92915050565b6123c981612384565b81146123d457600080fd5b50565b6000813590506123e6816123c0565b92915050565b6000806040838503121561240357612402612157565b5b6000612411858286016123d7565b92505060206124228582860161223d565b9150509250929050565b6000806040838503121561244357612442612157565b5b60006124518582860161223d565b92505060206124628582860161223d565b9150509250929050565b60008060006060848603121561248557612484612157565b5b6000612493868287016123d7565b93505060206124a4868287016123d7565b92505060406124b58682870161223d565b9150509250925092565b6000602082840312156124d5576124d4612157565b5b60006124e3848285016123d7565b91505092915050565b600081519050919050565b600082825260208201905092915050565b6000819050602082019050919050565b600082825260208201905092915050565b6000612534826122a9565b61253e8185612518565b935061254e8185602086016122c5565b612557816122f8565b840191505092915050565b6000602083016000830151848203600086015261257f8282612529565b9150508091505092915050565b60006125988383612562565b905092915050565b6000602082019050919050565b60006125b8826124ec565b6125c281856124f7565b9350836020820285016125d485612508565b8060005b8581101561261057848403895281516125f1858261258c565b94506125fc836125a0565b925060208a019950506001810190506125d8565b50829750879550505050505092915050565b6000602082019050818103600083015261263c81846125ad565b905092915050565b600080fd5b600080fd5b7f4e487b7100000000000000000000000000000000000000000000000000000000600052604160045260246000fd5b612686826122f8565b810181811067ffffffffffffffff821117156126a5576126a461264e565b5b80604052505050565b60006126b861214d565b90506126c4828261267d565b919050565b600067ffffffffffffffff8211156126e4576126e361264e565b5b6126ed826122f8565b9050602081019050919050565b82818337600083830152505050565b600061271c612717846126c9565b6126ae565b90508281526020810184848401111561273857612737612649565b5b6127438482856126fa565b509392505050565b600082601f8301126127605761275f612644565b5b8135612770848260208601612709565b91505092915050565b600080604083850312156127905761278f612157565b5b600083013567ffffffffffffffff8111156127ae576127ad61215c565b5b6127ba8582860161274b565b92505060206127cb8582860161223d565b9150509250929050565b6127de816121e6565b81146127e957600080fd5b50565b6000813590506127fb816127d5565b92915050565b6000806040838503121561281857612817612157565b5b6000612826858286016123d7565b9250506020612837858286016127ec565b9150509250929050565b600067ffffffffffffffff82111561285c5761285b61264e565b5b612865826122f8565b9050602081019050919050565b600061288561288084612841565b6126ae565b9050828152602081018484840111156128a1576128a0612649565b5b6128ac8482856126fa565b509392505050565b600082601f8301126128c9576128c8612644565b5b81356128d9848260208601612872565b91505092915050565b600080600080608085870312156128fc576128fb612157565b5b600061290a878288016123d7565b945050602061291b878288016123d7565b935050604061292c8782880161223d565b925050606085013567ffffffffffffffff81111561294d5761294c61215c565b5b612959878288016128b4565b91505092959194509250565b6000806040838503121561297c5761297b612157565b5b600061298a858286016123d7565b925050602061299b858286016123d7565b9150509250929050565b7f4e487b7100000000000000000000000000000000000000000000000000000000600052602260045260246000fd5b600060028204905060018216806129ec57607f821691505b60208210811415612a00576129ff6129a5565b5b50919050565b7f4552433732313a20617070726f76616c20746f2063757272656e74206f776e6560008201527f7200000000000000000000000000000000000000000000000000000000000000602082015250565b6000612a626021836122b4565b9150612a6d82612a06565b604082019050919050565b60006020820190508181036000830152612a9181612a55565b9050919050565b7f4552433732313a20617070726f76652063616c6c6572206973206e6f7420746f60008201527f6b656e206f776e6572206f7220617070726f76656420666f7220616c6c000000602082015250565b6000612af4603d836122b4565b9150612aff82612a98565b604082019050919050565b60006020820190508181036000830152612b2381612ae7565b9050919050565b7f596f7520617265206e6f7420746865206f776e6572206f66206569746865722060008201527f6f66207468652073746172730000000000000000000000000000000000000000602082015250565b6000612b86602c836122b4565b9150612b9182612b2a565b604082019050919050565b60006020820190508181036000830152612bb581612b79565b9050919050565b7f4552433732313a2063616c6c6572206973206e6f7420746f6b656e206f776e6560008201527f72206f7220617070726f76656400000000000000000000000000000000000000602082015250565b6000612c18602d836122b4565b9150612c2382612bbc565b604082019050919050565b60006020820190508181036000830152612c4781612c0b565b9050919050565b7f54686520537461722073686f756c6420626520757020666f722073616c650000600082015250565b6000612c84601e836122b4565b9150612c8f82612c4e565b602082019050919050565b60006020820190508181036000830152612cb381612c77565b9050919050565b7f596f75206e65656420746f206861766520656e6f756768204574686572000000600082015250565b6000612cf0601d836122b4565b9150612cfb82612cba565b602082019050919050565b60006020820190508181036000830152612d1f81612ce3565b9050919050565b7f4e487b7100000000000000000000000000000000000000000000000000000000600052601160045260246000fd5b6000612d608261221c565b9150612d6b8361221c565b925082821015612d7e57612d7d612d26565b5b828203905092915050565b7f596f752063616e27742073616c6520746865205374617220796f7520646f6e2760008201527f74206f776e656400000000000000000000000000000000000000000000000000602082015250565b6000612de56027836122b4565b9150612df082612d89565b604082019050919050565b60006020820190508181036000830152612e1481612dd8565b9050919050565b7f4552433732313a20696e76616c696420746f6b656e2049440000000000000000600082015250565b6000612e516018836122b4565b9150612e5c82612e1b565b602082019050919050565b60006020820190508181036000830152612e8081612e44565b9050919050565b7f4552433732313a2061646472657373207a65726f206973206e6f74206120766160008201527f6c6964206f776e65720000000000000000000000000000000000000000000000602082015250565b6000612ee36029836122b4565b9150612eee82612e87565b604082019050919050565b60006020820190508181036000830152612f1281612ed6565b9050919050565b7f4e487b7100000000000000000000000000000000000000000000000000000000600052603260045260246000fd5b6000612f538261221c565b91507fffffffffffffffffffffffffffffffffffffffffffffffffffffffffffffffff821415612f8657612f85612d26565b5b600182019050919050565b600081905092915050565b6000612fa7826122a9565b612fb18185612f91565b9350612fc18185602086016122c5565b80840191505092915050565b6000612fd98285612f9c565b9150612fe58284612f9c565b91508190509392505050565b7f596f7520617265206e6f7420746865206f776e6572206f66207468652073746160008201527f7200000000000000000000000000000000000000000000000000000000000000602082015250565b600061304d6021836122b4565b915061305882612ff1565b604082019050919050565b6000602082019050818103600083015261307c81613040565b9050919050565b7f4552433732313a207472616e736665722066726f6d20696e636f72726563742060008201527f6f776e6572000000000000000000000000000000000000000000000000000000602082015250565b60006130df6025836122b4565b91506130ea82613083565b604082019050919050565b6000602082019050818103600083015261310e816130d2565b9050919050565b7f4552433732313a207472616e7366657220746f20746865207a65726f2061646460008201527f7265737300000000000000000000000000000000000000000000000000000000602082015250565b60006131716024836122b4565b915061317c82613115565b604082019050919050565b600060208201905081810360008301526131a081613164565b9050919050565b7f416464726573733a20696e73756666696369656e742062616c616e6365000000600082015250565b60006131dd601d836122b4565b91506131e8826131a7565b602082019050919050565b6000602082019050818103600083015261320c816131d0565b9050919050565b600081905092915050565b50565b600061322e600083613213565b91506132398261321e565b600082019050919050565b600061324f82613221565b9150819050919050565b7f416464726573733a20756e61626c6520746f2073656e642076616c75652c207260008201527f6563697069656e74206d61792068617665207265766572746564000000000000602082015250565b60006132b5603a836122b4565b91506132c082613259565b604082019050919050565b600060208201905081810360008301526132e4816132a8565b9050919050565b7f4552433732313a206d696e7420746f20746865207a65726f2061646472657373600082015250565b60006133216020836122b4565b915061332c826132eb565b602082019050919050565b6000602082019050818103600083015261335081613314565b9050919050565b7f4552433732313a20746f6b656e20616c7265616479206d696e74656400000000600082015250565b600061338d601c836122b4565b915061339882613357565b602082019050919050565b600060208201905081810360008301526133bc81613380565b9050919050565b7f4552433732313a20617070726f766520746f2063616c6c657200000000000000600082015250565b60006133f96019836122b4565b9150613404826133c3565b602082019050919050565b60006020820190508181036000830152613428816133ec565b9050919050565b7f4552433732313a207472616e7366657220746f206e6f6e20455243373231526560008201527f63656976657220696d706c656d656e7465720000000000000000000000000000602082015250565b600061348b6032836122b4565b91506134968261342f565b604082019050919050565b600060208201905081810360008301526134ba8161347e565b9050919050565b7f4e487b7100000000000000000000000000000000000000000000000000000000600052601260045260246000fd5b600081519050919050565b600082825260208201905092915050565b6000613517826134f0565b61352181856134fb565b93506135318185602086016122c5565b61353a816122f8565b840191505092915050565b600060808201905061355a6000830187612396565b6135676020830186612396565b613574604083018561227f565b8181036060830152613586818461350c565b905095945050505050565b6000815190506135a08161218d565b92915050565b6000602082840312156135bc576135bb612157565b5b60006135ca84828501613591565b9150509291505056fea264697066735822122009939194f41d653d48606971a7639f16fd741025c4614a5e6bf970c6d22891e764736f6c634300080c0033",
  "immutableReferences": {},
  "source": "// SPDX-License-Identifier: MIT\npragma solidity >=0.4.24;\n\n//Importing openzeppelin-solidity ERC-721 implemented Standard\nimport \"../app/node_modules/@openzeppelin/contracts/token/ERC721/ERC721.sol\";\nimport \"../app/node_modules/@openzeppelin/contracts/utils/Address.sol\";\n\n// StarNotary Contract declaration inheritance the ERC721 openzeppelin implementation\ncontract StarNotary is ERC721 {\n\n    // Star data\n    struct Star {\n        string name;\n    }\n\n    // Implement Task 1 Add a name and symbol properties\n    // name: Is a short name to your token\n    // symbol: Is a short string like 'USD' -> 'American Dollar'\n    constructor() ERC721(\"Star Notary Token\", \"SNT\") {}\n    \n\n    // mapping the Star with the Owner Address\n    mapping(uint256 => Star) public tokenIdToStarInfo;\n    // mapping the TokenId and price\n    mapping(uint256 => uint256) public starsForSale;\n\n    \n    // Create Star using the Struct\n    function createStar(string memory _name, uint256 _tokenId) public { // Passing the name and tokenId as a parameters\n        Star memory newStar = Star(_name); // Star is an struct so we are creating a new Star\n        tokenIdToStarInfo[_tokenId] = newStar; // Creating in memory the Star -> tokenId mapping\n        _mint(msg.sender, _tokenId); // _mint assign the the star with _tokenId to the sender address (ownership)\n    }\n\n    // Putting an Star for sale (Adding the star tokenid into the mapping starsForSale, first verify that the sender is the owner)\n    function putStarUpForSale(uint256 _tokenId, uint256 _price) public {\n        require(ownerOf(_tokenId) == msg.sender, \"You can't sale the Star you don't owned\");\n        starsForSale[_tokenId] = _price;\n    }\n\n\n    // Function that allows you to convert an address into a payable address\n    function _make_payable(address x) internal pure returns (address payable) {\n        return payable(address(uint160(x)));\n    }\n\n    function buyStar(uint256 _tokenId) public  payable {\n        require(starsForSale[_tokenId] > 0, \"The Star should be up for sale\");\n        uint256 starCost = starsForSale[_tokenId];\n        address ownerAddress = ownerOf(_tokenId);\n        require(msg.value > starCost, \"You need to have enough Ether\");\n        transferFrom(ownerAddress, msg.sender, _tokenId); // We can't use _addTokenTo or_removeTokenFrom functions, now we have to use _transferFrom\n        address payable ownerAddressPayable = _make_payable(ownerAddress); // We need to make this conversion to be able to use transfer() function to transfer ethers\n\n        // transfer() method is no longer recommended using: https://consensys.net/diligence/blog/2019/09/stop-using-soliditys-transfer-now/\n        // ownerAddressPayable.transfer(starCost); \n        Address.sendValue(ownerAddressPayable, starCost);\n        if(msg.value > starCost) {\n            Address.sendValue(payable(msg.sender), msg.value - starCost);\n            // payable(msg.sender).transfer(msg.value - starCost);\n        }\n    }\n\n    // Implement Task 1 lookUptokenIdToStarInfo\n    function lookUptokenIdToStarInfo (uint _tokenId) public view returns (string memory) {\n        //1. You should return the Star saved in tokenIdToStarInfo mapping\n        return tokenIdToStarInfo[_tokenId].name;\n    }\n\n    // Implement Task 1 Exchange Stars function\n    function exchangeStars(uint256 _tokenId1, uint256 _tokenId2) public {\n        //1. Passing to star tokenId you will need to check if the owner of _tokenId1 or _tokenId2 is the sender\n        if (msg.sender != ownerOf(_tokenId1) && msg.sender != ownerOf(_tokenId2)) {\n            revert(\"You are not the owner of either of the stars\");\n        } else {\n            //2. You don't have to check for the price of the token (star)\n            //3. Get the owner of the two tokens (ownerOf(_tokenId1), ownerOf(_tokenId1)\n            address owner1 = ownerOf(_tokenId1);\n            address owner2 = ownerOf(_tokenId2);\n            //4. Use _transferFrom function to exchange the tokens.\n            // INFO: _transferForm does not exist anymore in the latest version of openzeppelin, using _transfer instead\n            _transfer(owner1, owner2, _tokenId1);\n            _transfer(owner2, owner1, _tokenId2);\n        } \n    }\n\n    // Implement Task 1 Transfer Stars\n    function transferStar(address _to1, uint256 _tokenId) public {\n        //1. Check if the sender is the ownerOf(_tokenId)\n        //2. Use the transferFrom(from, to, tokenId); function to transfer the Star\n        if (msg.sender != ownerOf(_tokenId)) {\n            revert(\"You are not the owner of the star\");\n        } else {\n            transferFrom(msg.sender, _to1, _tokenId);\n        }\n    }\n\n    // Create function to list all created stars\n    function listStarsforDebug() external view returns (Star[] memory) {\n        Star[] memory stars = new Star[](50); \n\n        for (uint256 i = 1; i <= 50; i++) {\n            if (_exists(i)) { \n                stars[i - 1] = tokenIdToStarInfo[i];\n            }\n        }\n        return stars;\n    }\n}",
  "sourcePath": "/Users/manuel/git/starnotary/contracts/StartNotary.sol",
  "compiler": {
    "name": "solc",
    "version": "0.8.12+commit.f00d7308.Emscripten.clang"
  },
  "schemaVersion": "3.4.15",
  "updatedAt": "2023-09-02T10:17:23.849Z",
  "devdoc": {
    "kind": "dev",
    "methods": {
      "approve(address,uint256)": {
        "details": "See {IERC721-approve}."
      },
      "balanceOf(address)": {
        "details": "See {IERC721-balanceOf}."
      },
      "getApproved(uint256)": {
        "details": "See {IERC721-getApproved}."
      },
      "isApprovedForAll(address,address)": {
        "details": "See {IERC721-isApprovedForAll}."
      },
      "name()": {
        "details": "See {IERC721Metadata-name}."
      },
      "ownerOf(uint256)": {
        "details": "See {IERC721-ownerOf}."
      },
      "safeTransferFrom(address,address,uint256)": {
        "details": "See {IERC721-safeTransferFrom}."
      },
      "safeTransferFrom(address,address,uint256,bytes)": {
        "details": "See {IERC721-safeTransferFrom}."
      },
      "setApprovalForAll(address,bool)": {
        "details": "See {IERC721-setApprovalForAll}."
      },
      "supportsInterface(bytes4)": {
        "details": "See {IERC165-supportsInterface}."
      },
      "symbol()": {
        "details": "See {IERC721Metadata-symbol}."
      },
      "tokenURI(uint256)": {
        "details": "See {IERC721Metadata-tokenURI}."
      },
      "transferFrom(address,address,uint256)": {
        "details": "See {IERC721-transferFrom}."
      }
    },
    "version": 1
  },
  "userdoc": {
    "kind": "user",
    "methods": {},
    "version": 1
  }
}