{
  "contractName": "StarNotary",
  "abi": [
    {
      "inputs": [],
      "stateMutability": "nonpayable",
      "type": "constructor"
    },
    {
      "anonymous": false,
      "inputs": [
        {
          "indexed": true,
          "internalType": "address",
          "name": "owner",
          "type": "address"
        },
        {
          "indexed": true,
          "internalType": "address",
          "name": "approved",
          "type": "address"
        },
        {
          "indexed": true,
          "internalType": "uint256",
          "name": "tokenId",
          "type": "uint256"
        }
      ],
      "name": "Approval",
      "type": "event"
    },
    {
      "anonymous": false,
      "inputs": [
        {
          "indexed": true,
          "internalType": "address",
          "name": "owner",
          "type": "address"
        },
        {
          "indexed": true,
          "internalType": "address",
          "name": "operator",
          "type": "address"
        },
        {
          "indexed": false,
          "internalType": "bool",
          "name": "approved",
          "type": "bool"
        }
      ],
      "name": "ApprovalForAll",
      "type": "event"
    },
    {
      "anonymous": false,
      "inputs": [
        {
          "indexed": true,
          "internalType": "address",
          "name": "from",
          "type": "address"
        },
        {
          "indexed": true,
          "internalType": "address",
          "name": "to",
          "type": "address"
        },
        {
          "indexed": true,
          "internalType": "uint256",
          "name": "tokenId",
          "type": "uint256"
        }
      ],
      "name": "Transfer",
      "type": "event"
    },
    {
      "inputs": [
        {
          "internalType": "address",
          "name": "to",
          "type": "address"
        },
        {
          "internalType": "uint256",
          "name": "tokenId",
          "type": "uint256"
        }
      ],
      "name": "approve",
      "outputs": [],
      "stateMutability": "nonpayable",
      "type": "function"
    },
    {
      "inputs": [
        {
          "internalType": "address",
          "name": "owner",
          "type": "address"
        }
      ],
      "name": "balanceOf",
      "outputs": [
        {
          "internalType": "uint256",
          "name": "",
          "type": "uint256"
        }
      ],
      "stateMutability": "view",
      "type": "function",
      "constant": true
    },
    {
      "inputs": [
        {
          "internalType": "uint256",
          "name": "tokenId",
          "type": "uint256"
        }
      ],
      "name": "getApproved",
      "outputs": [
        {
          "internalType": "address",
          "name": "",
          "type": "address"
        }
      ],
      "stateMutability": "view",
      "type": "function",
      "constant": true
    },
    {
      "inputs": [
        {
          "internalType": "address",
          "name": "owner",
          "type": "address"
        },
        {
          "internalType": "address",
          "name": "operator",
          "type": "address"
        }
      ],
      "name": "isApprovedForAll",
      "outputs": [
        {
          "internalType": "bool",
          "name": "",
          "type": "bool"
        }
      ],
      "stateMutability": "view",
      "type": "function",
      "constant": true
    },
    {
      "inputs": [],
      "name": "name",
      "outputs": [
        {
          "internalType": "string",
          "name": "",
          "type": "string"
        }
      ],
      "stateMutability": "view",
      "type": "function",
      "constant": true
    },
    {
      "inputs": [
        {
          "internalType": "uint256",
          "name": "tokenId",
          "type": "uint256"
        }
      ],
      "name": "ownerOf",
      "outputs": [
        {
          "internalType": "address",
          "name": "",
          "type": "address"
        }
      ],
      "stateMutability": "view",
      "type": "function",
      "constant": true
    },
    {
      "inputs": [
        {
          "internalType": "address",
          "name": "from",
          "type": "address"
        },
        {
          "internalType": "address",
          "name": "to",
          "type": "address"
        },
        {
          "internalType": "uint256",
          "name": "tokenId",
          "type": "uint256"
        }
      ],
      "name": "safeTransferFrom",
      "outputs": [],
      "stateMutability": "nonpayable",
      "type": "function"
    },
    {
      "inputs": [
        {
          "internalType": "address",
          "name": "from",
          "type": "address"
        },
        {
          "internalType": "address",
          "name": "to",
          "type": "address"
        },
        {
          "internalType": "uint256",
          "name": "tokenId",
          "type": "uint256"
        },
        {
          "internalType": "bytes",
          "name": "data",
          "type": "bytes"
        }
      ],
      "name": "safeTransferFrom",
      "outputs": [],
      "stateMutability": "nonpayable",
      "type": "function"
    },
    {
      "inputs": [
        {
          "internalType": "address",
          "name": "operator",
          "type": "address"
        },
        {
          "internalType": "bool",
          "name": "approved",
          "type": "bool"
        }
      ],
      "name": "setApprovalForAll",
      "outputs": [],
      "stateMutability": "nonpayable",
      "type": "function"
    },
    {
      "inputs": [
        {
          "internalType": "uint256",
          "name": "",
          "type": "uint256"
        }
      ],
      "name": "starsForSale",
      "outputs": [
        {
          "internalType": "uint256",
          "name": "",
          "type": "uint256"
        }
      ],
      "stateMutability": "view",
      "type": "function",
      "constant": true
    },
    {
      "inputs": [
        {
          "internalType": "bytes4",
          "name": "interfaceId",
          "type": "bytes4"
        }
      ],
      "name": "supportsInterface",
      "outputs": [
        {
          "internalType": "bool",
          "name": "",
          "type": "bool"
        }
      ],
      "stateMutability": "view",
      "type": "function",
      "constant": true
    },
    {
      "inputs": [],
      "name": "symbol",
      "outputs": [
        {
          "internalType": "string",
          "name": "",
          "type": "string"
        }
      ],
      "stateMutability": "view",
      "type": "function",
      "constant": true
    },
    {
      "inputs": [
        {
          "internalType": "uint256",
          "name": "",
          "type": "uint256"
        }
      ],
      "name": "tokenIdToStarInfo",
      "outputs": [
        {
          "internalType": "string",
          "name": "name",
          "type": "string"
        }
      ],
      "stateMutability": "view",
      "type": "function",
      "constant": true
    },
    {
      "inputs": [
        {
          "internalType": "uint256",
          "name": "tokenId",
          "type": "uint256"
        }
      ],
      "name": "tokenURI",
      "outputs": [
        {
          "internalType": "string",
          "name": "",
          "type": "string"
        }
      ],
      "stateMutability": "view",
      "type": "function",
      "constant": true
    },
    {
      "inputs": [
        {
          "internalType": "address",
          "name": "from",
          "type": "address"
        },
        {
          "internalType": "address",
          "name": "to",
          "type": "address"
        },
        {
          "internalType": "uint256",
          "name": "tokenId",
          "type": "uint256"
        }
      ],
      "name": "transferFrom",
      "outputs": [],
      "stateMutability": "nonpayable",
      "type": "function"
    },
    {
      "inputs": [
        {
          "internalType": "string",
          "name": "_name",
          "type": "string"
        },
        {
          "internalType": "uint256",
          "name": "_tokenId",
          "type": "uint256"
        }
      ],
      "name": "createStar",
      "outputs": [],
      "stateMutability": "nonpayable",
      "type": "function"
    },
    {
      "inputs": [
        {
          "internalType": "uint256",
          "name": "_tokenId",
          "type": "uint256"
        },
        {
          "internalType": "uint256",
          "name": "_price",
          "type": "uint256"
        }
      ],
      "name": "putStarUpForSale",
      "outputs": [],
      "stateMutability": "nonpayable",
      "type": "function"
    },
    {
      "inputs": [
        {
          "internalType": "uint256",
          "name": "_tokenId",
          "type": "uint256"
        }
      ],
      "name": "buyStar",
      "outputs": [],
      "stateMutability": "payable",
      "type": "function",
      "payable": true
    },
    {
      "inputs": [
        {
          "internalType": "uint256",
          "name": "_tokenId",
          "type": "uint256"
        }
      ],
      "name": "lookUptokenIdToStarInfo",
      "outputs": [
        {
          "internalType": "string",
          "name": "",
          "type": "string"
        }
      ],
      "stateMutability": "view",
      "type": "function",
      "constant": true
    },
    {
      "inputs": [
        {
          "internalType": "uint256",
          "name": "_tokenId1",
          "type": "uint256"
        },
        {
          "internalType": "uint256",
          "name": "_tokenId2",
          "type": "uint256"
        }
      ],
      "name": "exchangeStars",
      "outputs": [],
      "stateMutability": "nonpayable",
      "type": "function"
    },
    {
      "inputs": [
        {
          "internalType": "address",
          "name": "_to1",
          "type": "address"
        },
        {
          "internalType": "uint256",
          "name": "_tokenId",
          "type": "uint256"
        }
      ],
      "name": "transferStar",
      "outputs": [],
      "stateMutability": "nonpayable",
      "type": "function"
    }
  ],
  "bytecode": "0x60806040523480156200001157600080fd5b506040518060400160405280601181526020017f53746172204e6f7461727920546f6b656e0000000000000000000000000000008152506040518060400160405280600381526020017f534e540000000000000000000000000000000000000000000000000000000000815250816000908051906020019062000096929190620000b8565b508060019080519060200190620000af929190620000b8565b505050620001cd565b828054620000c69062000197565b90600052602060002090601f016020900481019282620000ea576000855562000136565b82601f106200010557805160ff191683800117855562000136565b8280016001018555821562000136579182015b828111156200013557825182559160200191906001019062000118565b5b50905062000145919062000149565b5090565b5b80821115620001645760008160009055506001016200014a565b5090565b7f4e487b7100000000000000000000000000000000000000000000000000000000600052602260045260246000fd5b60006002820490506001821680620001b057607f821691505b60208210811415620001c757620001c662000168565b5b50919050565b61328280620001dd6000396000f3fe60806040526004361061012a5760003560e01c806342842e0e116100ab578063a22cb4651161006f578063a22cb46514610405578063b88d4fde1461042e578063c87b56dd14610457578063d7830ccb14610494578063e7152a5c146104d1578063e985e9c5146104fa5761012a565b806342842e0e1461030e5780636352211e1461033757806370a082311461037457806395d89b41146103b15780639697c0a1146103dc5761012a565b806315e0afa5116100f257806315e0afa51461023a5780631967fd981461026357806323b872dd146102a05780632f1c34ef146102c9578063316a4361146102e55761012a565b806301ffc9a71461012f5780630564b1301461016c57806306fdde03146101a9578063081812fc146101d4578063095ea7b314610211575b600080fd5b34801561013b57600080fd5b5061015660048036038101906101519190612002565b610537565b604051610163919061204a565b60405180910390f35b34801561017857600080fd5b50610193600480360381019061018e919061209b565b610619565b6040516101a091906120d7565b60405180910390f35b3480156101b557600080fd5b506101be610631565b6040516101cb919061218b565b60405180910390f35b3480156101e057600080fd5b506101fb60048036038101906101f6919061209b565b6106c3565b60405161020891906121ee565b60405180910390f35b34801561021d57600080fd5b5061023860048036038101906102339190612235565b610709565b005b34801561024657600080fd5b50610261600480360381019061025c9190612275565b610821565b005b34801561026f57600080fd5b5061028a6004803603810190610285919061209b565b61090f565b604051610297919061218b565b60405180910390f35b3480156102ac57600080fd5b506102c760048036038101906102c291906122b5565b6109b5565b005b6102e360048036038101906102de919061209b565b610a15565b005b3480156102f157600080fd5b5061030c60048036038101906103079190612275565b610b18565b005b34801561031a57600080fd5b50610335600480360381019061033091906122b5565b610baa565b005b34801561034357600080fd5b5061035e6004803603810190610359919061209b565b610bca565b60405161036b91906121ee565b60405180910390f35b34801561038057600080fd5b5061039b60048036038101906103969190612308565b610c51565b6040516103a891906120d7565b60405180910390f35b3480156103bd57600080fd5b506103c6610d09565b6040516103d3919061218b565b60405180910390f35b3480156103e857600080fd5b5061040360048036038101906103fe919061246a565b610d9b565b005b34801561041157600080fd5b5061042c600480360381019061042791906124f2565b610df1565b005b34801561043a57600080fd5b50610455600480360381019061045091906125d3565b610e07565b005b34801561046357600080fd5b5061047e6004803603810190610479919061209b565b610e69565b60405161048b919061218b565b60405180910390f35b3480156104a057600080fd5b506104bb60048036038101906104b6919061209b565b610ed1565b6040516104c8919061218b565b60405180910390f35b3480156104dd57600080fd5b506104f860048036038101906104f39190612235565b610f79565b005b34801561050657600080fd5b50610521600480360381019061051c9190612656565b610ffe565b60405161052e919061204a565b60405180910390f35b60007f80ac58cd000000000000000000000000000000000000000000000000000000007bffffffffffffffffffffffffffffffffffffffffffffffffffffffff1916827bffffffffffffffffffffffffffffffffffffffffffffffffffffffff1916148061060257507f5b5e139f000000000000000000000000000000000000000000000000000000007bffffffffffffffffffffffffffffffffffffffffffffffffffffffff1916827bffffffffffffffffffffffffffffffffffffffffffffffffffffffff1916145b80610612575061061182611092565b5b9050919050565b60076020528060005260406000206000915090505481565b606060008054610640906126c5565b80601f016020809104026020016040519081016040528092919081815260200182805461066c906126c5565b80156106b95780601f1061068e576101008083540402835291602001916106b9565b820191906000526020600020905b81548152906001019060200180831161069c57829003601f168201915b5050505050905090565b60006106ce826110fc565b6004600083815260200190815260200160002060009054906101000a900473ffffffffffffffffffffffffffffffffffffffff169050919050565b600061071482610bca565b90508073ffffffffffffffffffffffffffffffffffffffff168373ffffffffffffffffffffffffffffffffffffffff161415610785576040517f08c379a000000000000000000000000000000000000000000000000000000000815260040161077c90612769565b60405180910390fd5b8073ffffffffffffffffffffffffffffffffffffffff166107a4611147565b73ffffffffffffffffffffffffffffffffffffffff1614806107d357506107d2816107cd611147565b610ffe565b5b610812576040517f08c379a0000000000000000000000000000000000000000000000000000000008152600401610809906127fb565b60405180910390fd5b61081c838361114f565b505050565b61082a82610bca565b73ffffffffffffffffffffffffffffffffffffffff163373ffffffffffffffffffffffffffffffffffffffff1614158015610899575061086981610bca565b73ffffffffffffffffffffffffffffffffffffffff163373ffffffffffffffffffffffffffffffffffffffff1614155b156108d9576040517f08c379a00000000000000000000000000000000000000000000000000000000081526004016108d09061288d565b60405180910390fd5b60006108e483610bca565b905060006108f183610bca565b90506108fe828286611208565b610909818385611208565b50505050565b6006602052806000526040600020600091509050806000018054610932906126c5565b80601f016020809104026020016040519081016040528092919081815260200182805461095e906126c5565b80156109ab5780601f10610980576101008083540402835291602001916109ab565b820191906000526020600020905b81548152906001019060200180831161098e57829003601f168201915b5050505050905081565b6109c66109c0611147565b82611502565b610a05576040517f08c379a00000000000000000000000000000000000000000000000000000000081526004016109fc9061291f565b60405180910390fd5b610a10838383611208565b505050565b6000600760008381526020019081526020016000205411610a6b576040517f08c379a0000000000000000000000000000000000000000000000000000000008152600401610a629061298b565b60405180910390fd5b6000600760008381526020019081526020016000205490506000610a8e83610bca565b9050813411610ad2576040517f08c379a0000000000000000000000000000000000000000000000000000000008152600401610ac9906129f7565b60405180910390fd5b610add8133856109b5565b6000610ae882611597565b9050610af481846115a1565b82341115610b1257610b11338434610b0c9190612a46565b6115a1565b5b50505050565b3373ffffffffffffffffffffffffffffffffffffffff16610b3883610bca565b73ffffffffffffffffffffffffffffffffffffffff1614610b8e576040517f08c379a0000000000000000000000000000000000000000000000000000000008152600401610b8590612aec565b60405180910390fd5b8060076000848152602001908152602001600020819055505050565b610bc583838360405180602001604052806000815250610e07565b505050565b600080610bd683611695565b9050600073ffffffffffffffffffffffffffffffffffffffff168173ffffffffffffffffffffffffffffffffffffffff161415610c48576040517f08c379a0000000000000000000000000000000000000000000000000000000008152600401610c3f90612b58565b60405180910390fd5b80915050919050565b60008073ffffffffffffffffffffffffffffffffffffffff168273ffffffffffffffffffffffffffffffffffffffff161415610cc2576040517f08c379a0000000000000000000000000000000000000000000000000000000008152600401610cb990612bea565b60405180910390fd5b600360008373ffffffffffffffffffffffffffffffffffffffff1673ffffffffffffffffffffffffffffffffffffffff168152602001908152602001600020549050919050565b606060018054610d18906126c5565b80601f0160208091040260200160405190810160405280929190818152602001828054610d44906126c5565b8015610d915780601f10610d6657610100808354040283529160200191610d91565b820191906000526020600020905b815481529060010190602001808311610d7457829003601f168201915b5050505050905090565b6000604051806020016040528084815250905080600660008481526020019081526020016000206000820151816000019080519060200190610dde929190611ef3565b50905050610dec33836116d2565b505050565b610e03610dfc611147565b83836118f0565b5050565b610e18610e12611147565b83611502565b610e57576040517f08c379a0000000000000000000000000000000000000000000000000000000008152600401610e4e9061291f565b60405180910390fd5b610e6384848484611a5d565b50505050565b6060610e74826110fc565b6000610e7e611ab9565b90506000815111610e9e5760405180602001604052806000815250610ec9565b80610ea884611ad0565b604051602001610eb9929190612c46565b6040516020818303038152906040525b915050919050565b6060600660008381526020019081526020016000206000018054610ef4906126c5565b80601f0160208091040260200160405190810160405280929190818152602001828054610f20906126c5565b8015610f6d5780601f10610f4257610100808354040283529160200191610f6d565b820191906000526020600020905b815481529060010190602001808311610f5057829003601f168201915b50505050509050919050565b610f8281610bca565b73ffffffffffffffffffffffffffffffffffffffff163373ffffffffffffffffffffffffffffffffffffffff1614610fef576040517f08c379a0000000000000000000000000000000000000000000000000000000008152600401610fe690612cdc565b60405180910390fd5b610ffa3383836109b5565b5050565b6000600560008473ffffffffffffffffffffffffffffffffffffffff1673ffffffffffffffffffffffffffffffffffffffff16815260200190815260200160002060008373ffffffffffffffffffffffffffffffffffffffff1673ffffffffffffffffffffffffffffffffffffffff16815260200190815260200160002060009054906101000a900460ff16905092915050565b60007f01ffc9a7000000000000000000000000000000000000000000000000000000007bffffffffffffffffffffffffffffffffffffffffffffffffffffffff1916827bffffffffffffffffffffffffffffffffffffffffffffffffffffffff1916149050919050565b61110581611ba8565b611144576040517f08c379a000000000000000000000000000000000000000000000000000000000815260040161113b90612b58565b60405180910390fd5b50565b600033905090565b816004600083815260200190815260200160002060006101000a81548173ffffffffffffffffffffffffffffffffffffffff021916908373ffffffffffffffffffffffffffffffffffffffff160217905550808273ffffffffffffffffffffffffffffffffffffffff166111c283610bca565b73ffffffffffffffffffffffffffffffffffffffff167f8c5be1e5ebec7d5bd14f71427d1e84f3dd0314c0f7b2291e5b200ac8c7c3b92560405160405180910390a45050565b8273ffffffffffffffffffffffffffffffffffffffff1661122882610bca565b73ffffffffffffffffffffffffffffffffffffffff161461127e576040517f08c379a000000000000000000000000000000000000000000000000000000000815260040161127590612d6e565b60405180910390fd5b600073ffffffffffffffffffffffffffffffffffffffff168273ffffffffffffffffffffffffffffffffffffffff1614156112ee576040517f08c379a00000000000000000000000000000000000000000000000000000000081526004016112e590612e00565b60405180910390fd5b6112fb8383836001611be9565b8273ffffffffffffffffffffffffffffffffffffffff1661131b82610bca565b73ffffffffffffffffffffffffffffffffffffffff1614611371576040517f08c379a000000000000000000000000000000000000000000000000000000000815260040161136890612d6e565b60405180910390fd5b6004600082815260200190815260200160002060006101000a81549073ffffffffffffffffffffffffffffffffffffffff02191690556001600360008573ffffffffffffffffffffffffffffffffffffffff1673ffffffffffffffffffffffffffffffffffffffff168152602001908152602001600020600082825403925050819055506001600360008473ffffffffffffffffffffffffffffffffffffffff1673ffffffffffffffffffffffffffffffffffffffff16815260200190815260200160002060008282540192505081905550816002600083815260200190815260200160002060006101000a81548173ffffffffffffffffffffffffffffffffffffffff021916908373ffffffffffffffffffffffffffffffffffffffff160217905550808273ffffffffffffffffffffffffffffffffffffffff168473ffffffffffffffffffffffffffffffffffffffff167fddf252ad1be2c89b69c2b068fc378daa952ba7f163c4a11628f55a4df523b3ef60405160405180910390a46114fd8383836001611bef565b505050565b60008061150e83610bca565b90508073ffffffffffffffffffffffffffffffffffffffff168473ffffffffffffffffffffffffffffffffffffffff161480611550575061154f8185610ffe565b5b8061158e57508373ffffffffffffffffffffffffffffffffffffffff16611576846106c3565b73ffffffffffffffffffffffffffffffffffffffff16145b91505092915050565b6000819050919050565b804710156115e4576040517f08c379a00000000000000000000000000000000000000000000000000000000081526004016115db90612e6c565b60405180910390fd5b60008273ffffffffffffffffffffffffffffffffffffffff168260405161160a90612ebd565b60006040518083038185875af1925050503d8060008114611647576040519150601f19603f3d011682016040523d82523d6000602084013e61164c565b606091505b5050905080611690576040517f08c379a000000000000000000000000000000000000000000000000000000000815260040161168790612f44565b60405180910390fd5b505050565b60006002600083815260200190815260200160002060009054906101000a900473ffffffffffffffffffffffffffffffffffffffff169050919050565b600073ffffffffffffffffffffffffffffffffffffffff168273ffffffffffffffffffffffffffffffffffffffff161415611742576040517f08c379a000000000000000000000000000000000000000000000000000000000815260040161173990612fb0565b60405180910390fd5b61174b81611ba8565b1561178b576040517f08c379a00000000000000000000000000000000000000000000000000000000081526004016117829061301c565b60405180910390fd5b611799600083836001611be9565b6117a281611ba8565b156117e2576040517f08c379a00000000000000000000000000000000000000000000000000000000081526004016117d99061301c565b60405180910390fd5b6001600360008473ffffffffffffffffffffffffffffffffffffffff1673ffffffffffffffffffffffffffffffffffffffff16815260200190815260200160002060008282540192505081905550816002600083815260200190815260200160002060006101000a81548173ffffffffffffffffffffffffffffffffffffffff021916908373ffffffffffffffffffffffffffffffffffffffff160217905550808273ffffffffffffffffffffffffffffffffffffffff16600073ffffffffffffffffffffffffffffffffffffffff167fddf252ad1be2c89b69c2b068fc378daa952ba7f163c4a11628f55a4df523b3ef60405160405180910390a46118ec600083836001611bef565b5050565b8173ffffffffffffffffffffffffffffffffffffffff168373ffffffffffffffffffffffffffffffffffffffff16141561195f576040517f08c379a000000000000000000000000000000000000000000000000000000000815260040161195690613088565b60405180910390fd5b80600560008573ffffffffffffffffffffffffffffffffffffffff1673ffffffffffffffffffffffffffffffffffffffff16815260200190815260200160002060008473ffffffffffffffffffffffffffffffffffffffff1673ffffffffffffffffffffffffffffffffffffffff16815260200190815260200160002060006101000a81548160ff0219169083151502179055508173ffffffffffffffffffffffffffffffffffffffff168373ffffffffffffffffffffffffffffffffffffffff167f17307eab39ab6107e8899845ad3d59bd9653f200f220920489ca2b5937696c3183604051611a50919061204a565b60405180910390a3505050565b611a68848484611208565b611a7484848484611bf5565b611ab3576040517f08c379a0000000000000000000000000000000000000000000000000000000008152600401611aaa9061311a565b60405180910390fd5b50505050565b606060405180602001604052806000815250905090565b606060006001611adf84611d7d565b01905060008167ffffffffffffffff811115611afe57611afd61233f565b5b6040519080825280601f01601f191660200182016040528015611b305781602001600182028036833780820191505090505b509050600082602001820190505b600115611b9d578080600190039150507f3031323334353637383961626364656600000000000000000000000000000000600a86061a8153600a8581611b8757611b8661313a565b5b0494506000851415611b9857611b9d565b611b3e565b819350505050919050565b60008073ffffffffffffffffffffffffffffffffffffffff16611bca83611695565b73ffffffffffffffffffffffffffffffffffffffff1614159050919050565b50505050565b50505050565b6000611c168473ffffffffffffffffffffffffffffffffffffffff16611ed0565b15611d70578373ffffffffffffffffffffffffffffffffffffffff1663150b7a02611c3f611147565b8786866040518563ffffffff1660e01b8152600401611c6194939291906131be565b6020604051808303816000875af1925050508015611c9d57506040513d601f19601f82011682018060405250810190611c9a919061321f565b60015b611d20573d8060008114611ccd576040519150601f19603f3d011682016040523d82523d6000602084013e611cd2565b606091505b50600081511415611d18576040517f08c379a0000000000000000000000000000000000000000000000000000000008152600401611d0f9061311a565b60405180910390fd5b805181602001fd5b63150b7a0260e01b7bffffffffffffffffffffffffffffffffffffffffffffffffffffffff1916817bffffffffffffffffffffffffffffffffffffffffffffffffffffffff191614915050611d75565b600190505b949350505050565b600080600090507a184f03e93ff9f4daa797ed6e38ed64bf6a1f0100000000000000008310611ddb577a184f03e93ff9f4daa797ed6e38ed64bf6a1f0100000000000000008381611dd157611dd061313a565b5b0492506040810190505b6d04ee2d6d415b85acef81000000008310611e18576d04ee2d6d415b85acef81000000008381611e0e57611e0d61313a565b5b0492506020810190505b662386f26fc100008310611e4757662386f26fc100008381611e3d57611e3c61313a565b5b0492506010810190505b6305f5e1008310611e70576305f5e1008381611e6657611e6561313a565b5b0492506008810190505b6127108310611e95576127108381611e8b57611e8a61313a565b5b0492506004810190505b60648310611eb85760648381611eae57611ead61313a565b5b0492506002810190505b600a8310611ec7576001810190505b80915050919050565b6000808273ffffffffffffffffffffffffffffffffffffffff163b119050919050565b828054611eff906126c5565b90600052602060002090601f016020900481019282611f215760008555611f68565b82601f10611f3a57805160ff1916838001178555611f68565b82800160010185558215611f68579182015b82811115611f67578251825591602001919060010190611f4c565b5b509050611f759190611f79565b5090565b5b80821115611f92576000816000905550600101611f7a565b5090565b6000604051905090565b600080fd5b600080fd5b60007fffffffff0000000000000000000000000000000000000000000000000000000082169050919050565b611fdf81611faa565b8114611fea57600080fd5b50565b600081359050611ffc81611fd6565b92915050565b60006020828403121561201857612017611fa0565b5b600061202684828501611fed565b91505092915050565b60008115159050919050565b6120448161202f565b82525050565b600060208201905061205f600083018461203b565b92915050565b6000819050919050565b61207881612065565b811461208357600080fd5b50565b6000813590506120958161206f565b92915050565b6000602082840312156120b1576120b0611fa0565b5b60006120bf84828501612086565b91505092915050565b6120d181612065565b82525050565b60006020820190506120ec60008301846120c8565b92915050565b600081519050919050565b600082825260208201905092915050565b60005b8381101561212c578082015181840152602081019050612111565b8381111561213b576000848401525b50505050565b6000601f19601f8301169050919050565b600061215d826120f2565b61216781856120fd565b935061217781856020860161210e565b61218081612141565b840191505092915050565b600060208201905081810360008301526121a58184612152565b905092915050565b600073ffffffffffffffffffffffffffffffffffffffff82169050919050565b60006121d8826121ad565b9050919050565b6121e8816121cd565b82525050565b600060208201905061220360008301846121df565b92915050565b612212816121cd565b811461221d57600080fd5b50565b60008135905061222f81612209565b92915050565b6000806040838503121561224c5761224b611fa0565b5b600061225a85828601612220565b925050602061226b85828601612086565b9150509250929050565b6000806040838503121561228c5761228b611fa0565b5b600061229a85828601612086565b92505060206122ab85828601612086565b9150509250929050565b6000806000606084860312156122ce576122cd611fa0565b5b60006122dc86828701612220565b93505060206122ed86828701612220565b92505060406122fe86828701612086565b9150509250925092565b60006020828403121561231e5761231d611fa0565b5b600061232c84828501612220565b91505092915050565b600080fd5b600080fd5b7f4e487b7100000000000000000000000000000000000000000000000000000000600052604160045260246000fd5b61237782612141565b810181811067ffffffffffffffff821117156123965761239561233f565b5b80604052505050565b60006123a9611f96565b90506123b5828261236e565b919050565b600067ffffffffffffffff8211156123d5576123d461233f565b5b6123de82612141565b9050602081019050919050565b82818337600083830152505050565b600061240d612408846123ba565b61239f565b9050828152602081018484840111156124295761242861233a565b5b6124348482856123eb565b509392505050565b600082601f83011261245157612450612335565b5b81356124618482602086016123fa565b91505092915050565b6000806040838503121561248157612480611fa0565b5b600083013567ffffffffffffffff81111561249f5761249e611fa5565b5b6124ab8582860161243c565b92505060206124bc85828601612086565b9150509250929050565b6124cf8161202f565b81146124da57600080fd5b50565b6000813590506124ec816124c6565b92915050565b6000806040838503121561250957612508611fa0565b5b600061251785828601612220565b9250506020612528858286016124dd565b9150509250929050565b600067ffffffffffffffff82111561254d5761254c61233f565b5b61255682612141565b9050602081019050919050565b600061257661257184612532565b61239f565b9050828152602081018484840111156125925761259161233a565b5b61259d8482856123eb565b509392505050565b600082601f8301126125ba576125b9612335565b5b81356125ca848260208601612563565b91505092915050565b600080600080608085870312156125ed576125ec611fa0565b5b60006125fb87828801612220565b945050602061260c87828801612220565b935050604061261d87828801612086565b925050606085013567ffffffffffffffff81111561263e5761263d611fa5565b5b61264a878288016125a5565b91505092959194509250565b6000806040838503121561266d5761266c611fa0565b5b600061267b85828601612220565b925050602061268c85828601612220565b9150509250929050565b7f4e487b7100000000000000000000000000000000000000000000000000000000600052602260045260246000fd5b600060028204905060018216806126dd57607f821691505b602082108114156126f1576126f0612696565b5b50919050565b7f4552433732313a20617070726f76616c20746f2063757272656e74206f776e6560008201527f7200000000000000000000000000000000000000000000000000000000000000602082015250565b60006127536021836120fd565b915061275e826126f7565b604082019050919050565b6000602082019050818103600083015261278281612746565b9050919050565b7f4552433732313a20617070726f76652063616c6c6572206973206e6f7420746f60008201527f6b656e206f776e6572206f7220617070726f76656420666f7220616c6c000000602082015250565b60006127e5603d836120fd565b91506127f082612789565b604082019050919050565b60006020820190508181036000830152612814816127d8565b9050919050565b7f596f7520617265206e6f7420746865206f776e6572206f66206569746865722060008201527f6f66207468652073746172730000000000000000000000000000000000000000602082015250565b6000612877602c836120fd565b91506128828261281b565b604082019050919050565b600060208201905081810360008301526128a68161286a565b9050919050565b7f4552433732313a2063616c6c6572206973206e6f7420746f6b656e206f776e6560008201527f72206f7220617070726f76656400000000000000000000000000000000000000602082015250565b6000612909602d836120fd565b9150612914826128ad565b604082019050919050565b60006020820190508181036000830152612938816128fc565b9050919050565b7f54686520537461722073686f756c6420626520757020666f722073616c650000600082015250565b6000612975601e836120fd565b91506129808261293f565b602082019050919050565b600060208201905081810360008301526129a481612968565b9050919050565b7f596f75206e65656420746f206861766520656e6f756768204574686572000000600082015250565b60006129e1601d836120fd565b91506129ec826129ab565b602082019050919050565b60006020820190508181036000830152612a10816129d4565b9050919050565b7f4e487b7100000000000000000000000000000000000000000000000000000000600052601160045260246000fd5b6000612a5182612065565b9150612a5c83612065565b925082821015612a6f57612a6e612a17565b5b828203905092915050565b7f596f752063616e27742073616c6520746865205374617220796f7520646f6e2760008201527f74206f776e656400000000000000000000000000000000000000000000000000602082015250565b6000612ad66027836120fd565b9150612ae182612a7a565b604082019050919050565b60006020820190508181036000830152612b0581612ac9565b9050919050565b7f4552433732313a20696e76616c696420746f6b656e2049440000000000000000600082015250565b6000612b426018836120fd565b9150612b4d82612b0c565b602082019050919050565b60006020820190508181036000830152612b7181612b35565b9050919050565b7f4552433732313a2061646472657373207a65726f206973206e6f74206120766160008201527f6c6964206f776e65720000000000000000000000000000000000000000000000602082015250565b6000612bd46029836120fd565b9150612bdf82612b78565b604082019050919050565b60006020820190508181036000830152612c0381612bc7565b9050919050565b600081905092915050565b6000612c20826120f2565b612c2a8185612c0a565b9350612c3a81856020860161210e565b80840191505092915050565b6000612c528285612c15565b9150612c5e8284612c15565b91508190509392505050565b7f596f7520617265206e6f7420746865206f776e6572206f66207468652073746160008201527f7200000000000000000000000000000000000000000000000000000000000000602082015250565b6000612cc66021836120fd565b9150612cd182612c6a565b604082019050919050565b60006020820190508181036000830152612cf581612cb9565b9050919050565b7f4552433732313a207472616e736665722066726f6d20696e636f72726563742060008201527f6f776e6572000000000000000000000000000000000000000000000000000000602082015250565b6000612d586025836120fd565b9150612d6382612cfc565b604082019050919050565b60006020820190508181036000830152612d8781612d4b565b9050919050565b7f4552433732313a207472616e7366657220746f20746865207a65726f2061646460008201527f7265737300000000000000000000000000000000000000000000000000000000602082015250565b6000612dea6024836120fd565b9150612df582612d8e565b604082019050919050565b60006020820190508181036000830152612e1981612ddd565b9050919050565b7f416464726573733a20696e73756666696369656e742062616c616e6365000000600082015250565b6000612e56601d836120fd565b9150612e6182612e20565b602082019050919050565b60006020820190508181036000830152612e8581612e49565b9050919050565b600081905092915050565b50565b6000612ea7600083612e8c565b9150612eb282612e97565b600082019050919050565b6000612ec882612e9a565b9150819050919050565b7f416464726573733a20756e61626c6520746f2073656e642076616c75652c207260008201527f6563697069656e74206d61792068617665207265766572746564000000000000602082015250565b6000612f2e603a836120fd565b9150612f3982612ed2565b604082019050919050565b60006020820190508181036000830152612f5d81612f21565b9050919050565b7f4552433732313a206d696e7420746f20746865207a65726f2061646472657373600082015250565b6000612f9a6020836120fd565b9150612fa582612f64565b602082019050919050565b60006020820190508181036000830152612fc981612f8d565b9050919050565b7f4552433732313a20746f6b656e20616c7265616479206d696e74656400000000600082015250565b6000613006601c836120fd565b915061301182612fd0565b602082019050919050565b6000602082019050818103600083015261303581612ff9565b9050919050565b7f4552433732313a20617070726f766520746f2063616c6c657200000000000000600082015250565b60006130726019836120fd565b915061307d8261303c565b602082019050919050565b600060208201905081810360008301526130a181613065565b9050919050565b7f4552433732313a207472616e7366657220746f206e6f6e20455243373231526560008201527f63656976657220696d706c656d656e7465720000000000000000000000000000602082015250565b60006131046032836120fd565b915061310f826130a8565b604082019050919050565b60006020820190508181036000830152613133816130f7565b9050919050565b7f4e487b7100000000000000000000000000000000000000000000000000000000600052601260045260246000fd5b600081519050919050565b600082825260208201905092915050565b600061319082613169565b61319a8185613174565b93506131aa81856020860161210e565b6131b381612141565b840191505092915050565b60006080820190506131d360008301876121df565b6131e060208301866121df565b6131ed60408301856120c8565b81810360608301526131ff8184613185565b905095945050505050565b60008151905061321981611fd6565b92915050565b60006020828403121561323557613234611fa0565b5b60006132438482850161320a565b9150509291505056fea2646970667358221220f33ebb94cfbb29d136db098a9327c7c46dccbddd2fa62f04843a57ce178c582564736f6c634300080c0033",
  "immutableReferences": {},
  "source": "// SPDX-License-Identifier: MIT\npragma solidity >=0.4.24;\n\n//Importing openzeppelin-solidity ERC-721 implemented Standard\nimport \"../app/node_modules/@openzeppelin/contracts/token/ERC721/ERC721.sol\";\nimport \"../app/node_modules/@openzeppelin/contracts/utils/Address.sol\";\n\n// StarNotary Contract declaration inheritance the ERC721 openzeppelin implementation\ncontract StarNotary is ERC721 {\n\n    // Star data\n    struct Star {\n        string name;\n    }\n\n    // Implement Task 1 Add a name and symbol properties\n    // name: Is a short name to your token\n    // symbol: Is a short string like 'USD' -> 'American Dollar'\n    constructor() ERC721(\"Star Notary Token\", \"SNT\") {}\n    \n\n    // mapping the Star with the Owner Address\n    mapping(uint256 => Star) public tokenIdToStarInfo;\n    // mapping the TokenId and price\n    mapping(uint256 => uint256) public starsForSale;\n\n    \n    // Create Star using the Struct\n    function createStar(string memory _name, uint256 _tokenId) public { // Passing the name and tokenId as a parameters\n        Star memory newStar = Star(_name); // Star is an struct so we are creating a new Star\n        tokenIdToStarInfo[_tokenId] = newStar; // Creating in memory the Star -> tokenId mapping\n        _mint(msg.sender, _tokenId); // _mint assign the the star with _tokenId to the sender address (ownership)\n    }\n\n    // Putting an Star for sale (Adding the star tokenid into the mapping starsForSale, first verify that the sender is the owner)\n    function putStarUpForSale(uint256 _tokenId, uint256 _price) public {\n        require(ownerOf(_tokenId) == msg.sender, \"You can't sale the Star you don't owned\");\n        starsForSale[_tokenId] = _price;\n    }\n\n\n    // Function that allows you to convert an address into a payable address\n    function _make_payable(address x) internal pure returns (address payable) {\n        return payable(address(uint160(x)));\n    }\n\n    function buyStar(uint256 _tokenId) public  payable {\n        require(starsForSale[_tokenId] > 0, \"The Star should be up for sale\");\n        uint256 starCost = starsForSale[_tokenId];\n        address ownerAddress = ownerOf(_tokenId);\n        require(msg.value > starCost, \"You need to have enough Ether\");\n        transferFrom(ownerAddress, msg.sender, _tokenId); // We can't use _addTokenTo or_removeTokenFrom functions, now we have to use _transferFrom\n        address payable ownerAddressPayable = _make_payable(ownerAddress); // We need to make this conversion to be able to use transfer() function to transfer ethers\n\n        // transfer() method is no longer recommended using: https://consensys.net/diligence/blog/2019/09/stop-using-soliditys-transfer-now/\n        // ownerAddressPayable.transfer(starCost); \n        Address.sendValue(ownerAddressPayable, starCost);\n        if(msg.value > starCost) {\n            Address.sendValue(payable(msg.sender), msg.value - starCost);\n            // payable(msg.sender).transfer(msg.value - starCost);\n        }\n    }\n\n    // Implement Task 1 lookUptokenIdToStarInfo\n    function lookUptokenIdToStarInfo (uint _tokenId) public view returns (string memory) {\n        //1. You should return the Star saved in tokenIdToStarInfo mapping\n        return tokenIdToStarInfo[_tokenId].name;\n    }\n\n    // Implement Task 1 Exchange Stars function\n    function exchangeStars(uint256 _tokenId1, uint256 _tokenId2) public {\n        //1. Passing to star tokenId you will need to check if the owner of _tokenId1 or _tokenId2 is the sender\n        if (msg.sender != ownerOf(_tokenId1) && msg.sender != ownerOf(_tokenId2)) {\n            revert(\"You are not the owner of either of the stars\");\n        } else {\n            //2. You don't have to check for the price of the token (star)\n            //3. Get the owner of the two tokens (ownerOf(_tokenId1), ownerOf(_tokenId1)\n            address owner1 = ownerOf(_tokenId1);\n            address owner2 = ownerOf(_tokenId2);\n            //4. Use _transferFrom function to exchange the tokens.\n            // INFO: _transferForm does not exist anymore in the latest version of openzeppelin, using _transfer instead\n            _transfer(owner1, owner2, _tokenId1);\n            _transfer(owner2, owner1, _tokenId2);\n        } \n    }\n\n    // Implement Task 1 Transfer Stars\n    function transferStar(address _to1, uint256 _tokenId) public {\n        //1. Check if the sender is the ownerOf(_tokenId)\n        //2. Use the transferFrom(from, to, tokenId); function to transfer the Star\n        if (msg.sender != ownerOf(_tokenId)) {\n            revert(\"You are not the owner of the star\");\n        } else {\n            transferFrom(msg.sender, _to1, _tokenId);\n        }\n    }\n\n}",
  "sourcePath": "/Users/manuel/git/starnotary/contracts/StartNotary.sol",
  "compiler": {
    "name": "solc",
    "version": "0.8.12+commit.f00d7308.Emscripten.clang"
  },
  "schemaVersion": "3.4.15",
  "updatedAt": "2023-09-02T17:45:25.741Z",
  "networkType": "ethereum",
  "devdoc": {
    "kind": "dev",
    "methods": {
      "approve(address,uint256)": {
        "details": "See {IERC721-approve}."
      },
      "balanceOf(address)": {
        "details": "See {IERC721-balanceOf}."
      },
      "getApproved(uint256)": {
        "details": "See {IERC721-getApproved}."
      },
      "isApprovedForAll(address,address)": {
        "details": "See {IERC721-isApprovedForAll}."
      },
      "name()": {
        "details": "See {IERC721Metadata-name}."
      },
      "ownerOf(uint256)": {
        "details": "See {IERC721-ownerOf}."
      },
      "safeTransferFrom(address,address,uint256)": {
        "details": "See {IERC721-safeTransferFrom}."
      },
      "safeTransferFrom(address,address,uint256,bytes)": {
        "details": "See {IERC721-safeTransferFrom}."
      },
      "setApprovalForAll(address,bool)": {
        "details": "See {IERC721-setApprovalForAll}."
      },
      "supportsInterface(bytes4)": {
        "details": "See {IERC165-supportsInterface}."
      },
      "symbol()": {
        "details": "See {IERC721Metadata-symbol}."
      },
      "tokenURI(uint256)": {
        "details": "See {IERC721Metadata-tokenURI}."
      },
      "transferFrom(address,address,uint256)": {
        "details": "See {IERC721-transferFrom}."
      }
    },
    "version": 1
  },
  "userdoc": {
    "kind": "user",
    "methods": {},
    "version": 1
  }
}